:10000000F8050020A5250000A1250000A12500007D
:1000100000000000000000000000000000000000E0
:10002000000000000000000000000000A12500000A
:100030000000000000000000A1250000A125000034
:10004000A1250000A1250000A1250000A125000098
:100050007D030000A1250000A12500000000000094
:10006000D50100001D1200002D120000000000004C
:1000700011180000B9180000C9180000A1250000DF
:10008000A1250000A1250000A125000010B5064C07
:100090002378002B07D1054B002B02D0044800E049
:1000A00000BF0123237010BDA40000200000000049
:1000B000E4280000084B10B5002B03D0074908487E
:1000C00000E000BF07480368002B00D110BD064BBD
:1000D000002BFBD09847F9E700000000A8000020A3
:1000E000E4280000E42800000000000000238360F2
:1000F000036041600020704708600A4B1A69002ABB
:1001000002D1196104E01A009368002BFBD19160C1
:10011000054B1B68DB0503D480225200024B1A609A
:10012000002070470000002000E100E010B5012928
:1001300004D01723002909D0180010BD007807311A
:10014000064B9847064B58610023F5E70078034BB0
:100150009847034B58610023EEE7C04611020000A8
:100160000004004210B50300012903D0002000293B
:1001700006D010BD00780731074B9847030003E015
:100180001878054B98470300044A90681840431EAE
:100190009841C0B2EDE7C046110200000000002007
:1001A00010B5012904D01723002906D0180010BD6E
:1001B00000780731054B984702E00078034B9847D9
:1001C000034BDA681043D8600023EFE71102000008
:1001D0000000002010B50B4B1C690B498A69986818
:1001E00002439A60094B8B61002C05D0206863683C
:1001F0009847A468002CF9D1024BD9689A688A43C1
:100200009A6010BD0000002000040042FFFF0F0FA5
:10021000072804D9091808310120884070470918B7
:1002200001208840FAE70000064A136A02210B43C6
:1002300013620122044B1A7019000B781342FCD18F
:100240007047C046000400400004004201230370D0
:10025000002343708370C37070470000F0B583B013
:1002600005000E00244B9847244B1B68DA070ED577
:100270005B08012401221A420AD05B080134E4B26F
:10028000062CF8D11E4B9847142003B0F0BD002473
:100290001A4A11680123A3400B4313601379013BF1
:1002A0001371174B98471420FF2CEED02C707378E5
:1002B000022B0AD001A9F3780B70E71DFFB23800BA
:1002C000104B98473800104B9847B3781B04FC221A
:1002D0009203134072781206C02189040A40134326
:1002E00032789206C02109050A40134307221440C0
:1002F0001C436C600020C8E7951F00000000002030
:10030000D51F000049240000BD23000003780133FD
:100310001B02F022120113401F2211400B43034A1B
:1003200013814368536000207047C04600040042B8
:100330001723002A01D0180070478B00064A9B58EB
:10034000002B03D0834205D01D23F4E78900885099
:100350000023F0E70023EEE7240100201723002903
:1003600001D01800704700221F2800D8024A01233C
:100370008340D3600023F4E70018004070B50022EA
:10038000104B1A700023104A1F25104E0D4C0AE026
:100390000D4A08E023780133DBB223700F2B0FD80E
:1003A00000221F2BF4D91169280018400122824035
:1003B0001142EFD09B009B59002BEBD09847E9E707
:1003C00070BDC04623010020001800402401002019
:1003D000044A137802210B43137053785BB2002B4D
:1003E000FBDB70470018004000B583B0124A9369E8
:1003F00040210B43936101A900230B7005200F4B93
:10040000984705200E4B98470E4A137801210B435D
:10041000137053785BB2002BFBDB0B4B19004031A0
:10042000002204C39942FCD11022084B1A60084BE9
:10043000984703B000BDC0460004004049240000B6
:10044000BD230000001800402401002000E100E06E
:10045000D103000000230360436001220272427254
:1004600083720233C3727047F0B583B005000C008D
:1004700001A900234B70CB7023790B70237A8B700A
:100480002078154B984700201F2D00D813480722CD
:100490002A409200E77AA37A002B01D008231F4359
:1004A000EB089B00C31899690F269640B14397400B
:1004B0003A000A439A61637A002B06D1436901220C
:1004C000AA409343436103B0F0BD42690123AB40AE
:1004D00013434361F7E7C046412500000018004080
:1004E00010B500230021012402E00133202B06D0A7
:1004F000C25C002AF9D022009A401143F5E7024B72
:100500005A681143596010BD0018004010B5002111
:100510000420034CA04700210120A04710BDC04685
:100520005D030000F0B585B001AC20000D4FB84769
:10053000042301938023DB02636002252572E572A8
:1005400021000420084EB0472000B8470F23019334
:10055000F0231B0363602572E57221000120B04780
:1005600005B0F0BD550400006904000082B06B4680
:100570000022DA71034A1278D2B2DA71D879C0B2A5
:1005800002B070471018004010B50D4B9847122369
:100590001840102805D012280DD00022094B1A70DF
:1005A00002E00322074B1A700122074B1A70113226
:1005B000064B1A7010BD0722024B1A70F4E7C046B2
:1005C0006D050000200100202101002010180040CE
:1005D00010B50D4B984712231840022805D0122859
:1005E0000DD00022094B1A7002E00122074B1A704D
:1005F0000122074B1A701132064B1A7010BD0422EB
:10060000024B1A70F4E7C0466D050000200100207F
:10061000210100201018004010B5002204210448D8
:10062000044CA047002201210348A04710BDC0464A
:100630008905000031030000D105000010B5034B0F
:100640009847034B9847034B984710BD250500007A
:10065000190600000D05000010B504000121094B2A
:100660009847002804D101212000074B984710BD6E
:1006700000210648064B9847064B18600122064B9E
:100680001A70F0E765010000A10100008001002060
:100690002D1B0000CC000020C900002030B583B025
:1006A000050001AC2000074B98470E23A3700B3BBD
:1006B000237000236370E37021002800024B9847E9
:1006C00003B030BD4D0200005D02000010B58CB0DB
:1006D00001AC20000A4B984702230193802292022A
:1006E000626023720133E37204A8023B8370054BFE
:1006F000984721000220044B98470CB010BDC0461B
:1007000055040000E10400006904000010B58EB03B
:1007100001AA0023002113709370937113810020AC
:100720005070917291735173117453619361117789
:10073000136253621385538593850133D372137308
:100740008023DB009380154C15492000154B9847FA
:100750002268D37B5BB2002BFBDB138802210B43A7
:1007600013800E4B1A68D37B5BB2002BFBDB3B2361
:1007700013739373138802218B431380074B1A68FA
:10078000538933310B435381D37B5BB2002BFBDBAB
:10079000138802210B4313800EB010BD800100208E
:1007A000001C0042FD18000091235B00002203E0C2
:1007B00001323233132A07D08342F9D2190014319F
:1007C0008142F5D9D0B200E01420704710B582B054
:1007D0000023019300935B4B1B781420002B01D165
:1007E00002B010BD0022574B1A70574B1B78002BDC
:1007F00045D1564B1B68DB0727D4554B1A68554B20
:100800001A60524A1368013313601420642BE7D135
:1008100000224E4B1A60504B19685048504B984775
:10082000504B18601A681968E1239B00934200D36B
:1008300084E000234C4A8A425B41DBB2002B7DD02E
:100840000122414B1A701420CAE7424B1B68404AF0
:1008500011688C4663441360444A1278002A04D11C
:100860003D4A13600121414A11703B4C2268D0007F
:100870008018C0180A213A4B98472060C1E700222F
:10088000304B1A70324B1B6819001A39FF39384A3D
:1008900014209142A4D8334A10685843FA218900A1
:1008A0002F4B984700900098324B9847324B187066
:1008B000324B1B78002B10D02F4B1B78304A12780C
:1008C000DBB293423CD000222C4B1A702A4B1B788F
:1008D000DBB22C4A1370142082E7274B1B78294A7D
:1008E0001278DBB2934223D00022274B1A800132C8
:1008F000224B1A70244B1B889BB21420052B00D866
:100900006EE70C38214B9847FA204000204B98475F
:100910000820204B984700221B4B1A80164A137858
:10092000DBB217490B7010780122144B1A7057E78D
:10093000154A138801339BB21380DBE714204FE77D
:1009400014204DE7C9000020C0000020C400002092
:10095000CC000020D0000020D80000208096980015
:10096000C1260000DC0000204B040000C80000206D
:10097000AA030000A9070000D400002015000020F1
:1009800014000020D5000020C20000203D1D000002
:100990005D100000611D000010B588B068460D4B69
:1009A00098470B2168460C4B98470C4902A80C4B02
:1009B000984702A968460B4B9847012168460A4BA5
:1009C00098470A4B984705A8094B9847094CA047F8
:1009D000FDE7C0469D0600000D030000590600001B
:1009E000ED000000F90000002D0100000D070000DF
:1009F000CD060000950A000010B504000E4B984784
:100A0000052C06D8A4000D4B1B599F460C480D4BD6
:100A10009847094B984710BD0B480A4B9847F8E791
:100A20000A48084B9847F4E70948064B9847F0E70F
:100A30000848044B9847ECE75D0B000030280000A5
:100A400018000020490B00001C000020200000209E
:100A5000240000202800002070B505000C00094B80
:100A60001B78DBB28B4205D0064B1970481EC0B212
:100A7000054B98472800054B98472000044B9847A2
:100A800070BDC04622010020851D0000F90900004C
:100A9000210D000010B50C4B984704000B4B9847F4
:100AA0000B4B1B780343DBB2002B06D1084B1B78A2
:100AB0000343DBB2240223439BB20021044A11709A
:100AC0001800044B984710BDCD070000B11D000071
:100AD00020010020590E000010B5022202490348EF
:100AE000034B984710BDC046E00000205400002092
:100AF000451F000010B5022202490348034B9847E6
:100B000010BDC046E00000208C000020451F000002
:100B100010B5022202490348034B984710BDC04656
:100B2000E000002070000020451F000010B50222E8
:100B300002490348034B984710BDC046E00000201F
:100B400038000020451F000010B503220149024B68
:100B5000984710BDE4000020451F000010B5022298
:100B600002490348034B984710BDC046E0000020EF
:100B700094000020451F000010B56420014B9847E9
:100B800010BDC0465D10000010B5094B9847094CD8
:100B9000A047094B9847A047084B9847A0470848EB
:100BA000084B9847A0470122074B1A7010BDC0465A
:100BB000F50A0000790B0000110B00002D0B00005E
:100BC0002C000020490B000022010020F8B506008F
:100BD000174B00221A701B78002B26D1154F164D8B
:100BE000164C09E0144B9B781B07DB0F002B1CD025
:100BF0000F4B1B78002B18D1C820B84703222900BF
:100C000020000F4B9847022E05D0032E08D0012359
:100C1000012EEBD1E6E7084B9B785B07DB0FE5E79E
:100C2000054B9B789B07DB0FE0E7064B9847F8BD29
:100C3000210100205D100000E40000209000002051
:100C4000451F00005D0B000010B504000520124B8D
:100C50009847022C13D0032C17D0012C09D0012067
:100C60000E4B98470E480F4B984705200E4B984760
:100C700010BD06220D490E480E4B9847EFE706229D
:100C80000A490D480B4B9847E9E7062207490B48EC
:100C9000084B9847E3E7C0463D1D0000CD0B000020
:100CA0002C000020490B0000611D0000E80000201E
:100CB00074000020451F00007C00002084000020FC
:100CC00010B504000F4B9847022C0FD0032C13D003
:100CD000012C05D003200C4B98470A4B984710BDB8
:100CE00006220A490A480B4B9847F3E706220749B0
:100CF0000948084B9847EDE7062204490748054B89
:100D00009847E7E75D0B0000CD0B0000E8000020EE
:100D10003C000020451F0000440000204C00002043
:100D200010B504000820114B9847114B9847022C2E
:100D300010D0032C14D0012C06D002200D4B984764
:100D400008200D4B984710BD06220C490C480D4B4E
:100D50009847F2E7062209490B480A4B9847ECE707
:100D6000062206490948074B9847E6E73D1D000063
:100D70002D0B0000CD0B0000611D0000E8000020DD
:100D800058000020451F000060000020680000207F
:100D9000F8B5CE46474680B503239946124B984690
:100DA000124F134EC8240820C0470520C04720001A
:100DB000B8470520B0470820B047C825AD00281B1C
:100DC000B8470234AC42EED101235B429C46E14479
:100DD0004B46002BE6D10820034CA0470520A04736
:100DE0000CBC90469946F8BD611D00003110000012
:100DF0003D1D000070B508200E4CA0470520A047FF
:100E00000D4B98470D4E0E4C0E4DC820B047032297
:100E1000210028000C4B9847A3789B07F5D40B4B77
:100E2000984708200A4CA0470520A047094B98473F
:100E300070BDC0463D1D0000D90A00005D100000D5
:100E4000E400002090000020451F00005D0B000022
:100E5000611D0000910D000070B5C0239B009842F9
:100E600000D18EE036D8032857D01DD980235B00EF
:100E7000984200D17BE00133FF33984200D17BE000
:100E800004285BD14B4B98474B4C012323704B4BB1
:100E900098474B4B984720780138C0B2494B984748
:100EA0000022494B1A7049E0012848D0022845D158
:100EB000414D2878C0B2454B98474548454CA0471E
:100EC0002878C0B2444B98474448A04700223E4B84
:100ED0001A7033E0C023DB0098425CD010D9802325
:100EE0001B0198425CD00133FF3398425DD0E02370
:100EF000DB00984222D103210120394B98471DE0A5
:100F00008023DB00984241D00133FF33984215D152
:100F100002210320324B984710E0264B9847314876
:100F20002C4CA047304B9847234B1878C0B22F4B1E
:100F300098472A48A0470022234B1A7070BD1D4BCA
:100F400098471D4A13780133DBB213701378DBB274
:100F5000032B02D90122184B1A70174B187801384D
:100F6000C0B2184B98470022174B1A70E6E70121D0
:100F700001201B4B9847E1E701210320184B9847BC
:100F8000DCE701210520164B9847D7E70221012015
:100F9000134B9847D2E702210520114B9847CDE724
:100FA000032103200E4B9847C8E7032105200C4B73
:100FB0009847C3E75D0B000022010020F50D0000FB
:100FC000910D0000851D000021010020C10C0000D2
:100FD00034000020490B0000490C00002C000020C8
:100FE000590A0000300000202D0B0000210D0000E8
:100FF00070B50020084B98470500084CFA2189007D
:10100000A047074B186007492800A047064B186007
:101010000522064B1A6070BD31230000C126000076
:101020009800002040420F009C00002010E000E0EB
:1010300030B5084B1C68084A002580214902013858
:1010400007D3002CFBD05460956013680B42FCD092
:10105000F5E730BD9C00002010E000E030B5084B03
:101060001C68084A002580214902013807D3002C5A
:10107000FBD05460956013680B42FCD0F5E730BD9F
:101080009800002010E000E000B583B001AB8022A2
:101090001A700A785A704A789A708A78DA70190049
:1010A000014B984703B000BD4125000010B5490829
:1010B00040230024814202D2180010BD1C00091AEE
:1010C000631C9BB28842F9D94023FF2CF4D81480CA
:1010D0000023F1E710B582B004000E4B1B78002B03
:1010E00007D0002905D10B4B5B78834210D01D201F
:1010F0000CE001A90C700D20074B98470D20074B01
:101100009847044B5C7001221A70002002B010BD99
:101110000020FBE7F000002049240000BD23000070
:10112000154B984204D0154B984211D000207047BF
:10113000012907D000291BD0022905D0032905D099
:101140000020F4E70E48F2E70E48F0E70E48EEE71D
:10115000012907D000290DD0022905D0032905D087
:101160000020E4E70948E2E70948E0E70948DEE74C
:101170000948DCE70948DAE700080042000C0042B1
:1011800003000500030008000300090002001F001F
:1011900002001800020019000300040002001E00F3
:1011A000064B984208D0064A0023904201D018000E
:1011B00070470133DBB2FAE70023FBE70008004287
:1011C000000C00427047000030B5094B1B78002B23
:1011D0000AD1084C084D2560084B00221A60656052
:1011E0005A600132024B1A708000024BC15030BD70
:1011F000F2000020F4000020C5110000DC010020F6
:1012000010B582B001AC0923237001336370024B27
:101210009847205602B010BDA111000010B5024B36
:101220001B680020984710BDF400002010B5024B49
:101230005B680120984710BDF4000020F0B58BB02A
:1012400005000C00160029600B681C209B0701D5C7
:101250000BB0F0BD0B681738DB07F9D408006F4BF3
:1012600098476F4A116A871C0123BB400B431362E6
:1012700009A92427F35D0B700E30C3B20193180047
:10128000684B98470198684B9847F05D0021674B81
:1012900098473378012B3FD03378002B03D1236854
:1012A0000822134323602B000C332900283100222D
:1012B00004C38B42FCD10023EB62AB620024AB86FB
:1012C0002B863633EC540133EC540133EC54353B6C
:1012D0006B722C712868514B984707005449554B45
:1012E0009847BF00544BFD502F6804AB80221A7002
:1012F0005C707F3A9A70DC703378002B02D1002248
:1013000004AB9A70B36A0593F36A0693336B079341
:10131000736B089300240BE023680C2213432360B3
:10132000BAE73800454B98470AE00134042C10D046
:10133000E1B2A30002AA0C201218D0580028F0D065
:10134000431CF2D004A90870000CC0B23C4B984773
:10135000EBE733786B71337CAB71B37CEB71337D2E
:101360002B72002202ABDA803378012B12D0337853
:10137000002B26D1B069B28B7B6AF17F0904B47F60
:101380002143194379622023F35C002B1BD04023B7
:101390001A4318E02868214B98470E30C0B2294BF9
:1013A0009847010002AB9A1DB069274B984703008C
:1013B0001720002B00D04BE702AB06331B783B73A2
:1013C000D5E7002200207368B1680B43F1680B4336
:1013D0000343317C0A43717C002903D11B4989787E
:1013E000890701D580210B43B17C002902D08021DF
:1013F00089020A43F17C002902D0802189000A4336
:10140000317D002902D0802189010A4339680B43CC
:101410003B607B681A437A60002019E7A111000045
:101420000004004049240000BD230000D510000046
:10143000A1150000C9110000DC01002021110000ED
:101440004125000065240000AD100000002000418F
:1014500010B544791523012C01D0180010BD047A71
:101460000023002CF9D1002A58D04B78002B44D00F
:1014700003681B7EDB0710D40A78D10900230029FA
:1014800004D15309DB012E498C4663441F211140CE
:1014900001228A409A610523DFE70A78D4090023F4
:1014A000002C04D15309DB01254CA44663441F24BE
:1014B00014400122A2405A6103681A7ED20701D566
:1014C0008A789A62C2790023002AC6D10268042170
:1014D000137E0B42FCD0117E00234907BDD5538BF0
:1014E0005B0701D5042353838379012B02D0936AD0
:1014F0000023B2E7936A0023AFE70A78D1090023FB
:10150000002904D15309DB010D498C4663441F2196
:10151000114001228A405A6100239EE70A78D109CE
:101520000023002904D15309DB0105498C4663449B
:101530001F21114001228A409A6100238DE7C04695
:1015400000440041931C9B00C318596036210123BD
:1015500093401A00435C13434354704730B517243B
:10156000002B01D1200030BDC5790534002DF9D004
:101570001C34055D333C052DF4D0838603868262DE
:10158000C16205223823C254363B437203689A7500
:1015900042790024002AE5D102321A769A75E1E7F1
:1015A000F8B58000854BC45826683723E35C3622A3
:1015B000A75C1F40337EB57D1D40EB072ED56379B8
:1015C000012B25D0002B29D1637A002B26D021684E
:1015D000E26A1378DBB2501CE062A079012800D1E6
:1015E00069E09BB2DB05DB0D8B62A38E013B9BB2F6
:1015F000A386A38E9BB2002B10D101333375637A7F
:10160000012B0BD1E379002B08D10233B37505E030
:10161000637A002B3ED0637A002BD8D16B0711D5AB
:10162000738B5B0751D5637A012B08D01E223823B8
:10163000E254353B6372023333753B0741D4B36ADE
:1016400004237383AB0715D56379002B0ED10733C1
:101650003375053B3376013363720023A3862386FB
:1016600038330022E254FB0600D57FE06379012B7A
:1016700000D17FE02B0708D56379002B05D1083313
:1016800033753376BB0600D58AE06DB2002D00DAE3
:101690008AE0F8BD4A4B1B88B362638E013B9BB264
:1016A0006386638E9BB2002B01D10133337563795E
:1016B000012BB0D086E75078000203430232E26289
:1016C00090E72000A3699847B9E7637A012B27D0F8
:1016D00023689B6ADB05DB0DDAB2A16A0A70A26A95
:1016E000511CA162A179012933D0238E013B9BB209
:1016F0002386238E9BB2002BA4D100223833E254E0
:10170000343B3375637A022B29D0637A002B00D0E7
:1017100098E7BB0700D495E720002369984791E735
:1017200023689B6A638E013B9BB26386638E9BB288
:10173000002B00D086E70433337500223433E254A3
:10174000353B6372FB0700D47CE72000E3689847D1
:1017500078E71B0A5370A36A0133A362C5E77B07CE
:1017600000D46FE72000636998476BE72000E369C6
:1017700098477BE7637A012B00D086E7E379002B5B
:1017800000D082E7023333750133637200223533B0
:10179000E254FB0700D46DE72000E368984769E74F
:1017A0002000236A984770E78023337533767B06E1
:1017B00000D46EE7636A200098476AE7DC010020E6
:1017C000E4010020F0B5C64600B580000E4BC758B6
:1017D0003B68DE6ABB6B7A6B13401E4000240B4BE8
:1017E000984602E00434302C0AD04346E55835428E
:1017F000F8D03B195B68380098473B68DD62F1E739
:1018000004BC9046F0BDC046E80100204828000016
:1018100010B50020014B984710BDC046C517000009
:10182000931C9B001950022A09D0032A0CD00123D3
:1018300093401A00037E1343037600207047037E13
:10184000102213430376F8E7037E20221343037626
:10185000F3E7000070B58000164BC45823689D7BE9
:10186000227E637E13401D40EB0706D4AB070BD4EA
:10187000EB0610D4AB0615D470BD2000A3689847C2
:10188000012322689373F1E72000E368984702235D
:1018900022689373ECE7200023699847102322689D
:1018A0009373E7E7200063699847236820229A73BF
:1018B000E2E7C046EC01002010B50020014B98473C
:1018C00010BDC0465518000010B50120014B9847C7
:1018D00010BDC04655180000064B984208D0064A75
:1018E0000023904201D0180070470133DBB2FAE7C1
:1018F0000023FBE700180042001C0042F0B585B051
:1019000004000D0016000800824B9847070003AB47
:1019100012221A705A7002AB2E321A8040325A804C
:101920000023A360E3602361636123766376820012
:10193000794BD4502560B378082B06D023712B88BF
:101940000520DB0705D505B0F0BD1720FA07FAD44E
:10195000F4E7EB7B1730DB06F5D42B889B07F2D43A
:10196000337C002B00D07AE0337F002B00D082E064
:101970006A49086A7A0002ABD35A03430B62B37810
:10198000082B00D187E033786A46137003ABDF5D24
:1019900069463800624B98473800624B9847318956
:1019A000B3880B43B178B279114319437378002B94
:1019B00002D080231B0119432268D37B5BB2002B2A
:1019C000FBDB2980717B4B1E99418900B37B002B87
:1019D00001D0012319432268D37B5BB2002BFBDBD0
:1019E000FF232B71002905D02268D37B5BB2002B2B
:1019F000FBDB6971B17AF37A002B01D01023194314
:101A0000337B002B01D0202319432268D37B5BB2A8
:101A1000002BFBDBA9712268D37B5BB2002BFBDBC5
:101A20002379042B3FD0082B5ED01720002B00D049
:101A300089E7D37B5BB2002BFBDB338D2B822268E3
:101A4000D37B5BB2002BFBDB738D2B832268D37BB4
:101A50005BB2002BFBDBB38D6B83002073E701A926
:101A600001238B700022CA70327E0A704B70307D69
:101A70002D4B984778E701A901238B700022CA708B
:101A80002432B21812780A704B701F33F31818788A
:101A9000254B98476CE7086A7A1C520002ABD35A70
:101AA00003430B626FE7D37B5BB2002BFBDB282386
:101AB000F35C2B742268D37B5BB2002BFBDB292306
:101AC000F35C2B752268D37B5BB2002BFBDB2A23F4
:101AD000F35C2B762268D37B5BB2002BFBDB2B23E2
:101AE000F35C6B7600202EE7D37B5BB2002BFBDB35
:101AF000B36A2B612268D37B5BB2002BFBDBF36AFA
:101B0000AB612268D37B5BB2002BFBDB336BEB61F9
:101B1000002018E7D9180000EC0100200004004064
:101B200049240000BD230000412500000268D37B4A
:101B30005BB2002BFBDB0379042B05D0082B12D002
:101B40000020002B07D0704700200129FBD8521835
:101B5000107EC0B2F7E700200129F4D80C3149000B
:101B6000885A80B2EFE7012903D8063189008858E6
:101B7000E9E70020E7E70000254B1A78462A0CD059
:101B8000244B1B78012B22D0002B15D0022B2BD0FD
:101B9000002A0CD0072A33D109E000221A701D4B0D
:101BA0001B78012B13D0002B06D0022B1CD08022D7
:101BB0009200194BDA6123E0154B1B78002B01D002
:101BC000072B1DD180229200134BDA6118E0104BD5
:101BD0001A78152A14D8114BD340DB0710D5802270
:101BE00092000D4BDA610BE0094B1A781C2A0CD8D5
:101BF0000B4BD340DB0708D580229200064BDA61FD
:101C0000034A1378013313707047232AF8D1F3E79E
:101C1000FC000020FD000020004400418140200025
:101C20008140201010B58EB001AA0023002113704E
:101C300093711381002050709172D172117391735E
:101C40005173117453619361117713625362138559
:101C50005385938504339370E023DB009380FF2149
:101C60002923D154074C08492000084B9847226883
:101C7000D37B5BB2002BFBDB138802210B43138069
:101C80000EB010BD6401002000180042FD180000D5
:101C900010B50C4C00220C4920000C4B98472068D2
:101CA0000B4B98470B4B1A5C1F231340012211006A
:101CB0009940094B1960637E01210B4363762368C9
:101CC0005A7310BD64010020791B00002118000028
:101CD000D91800007828000000E100E070B582B05B
:101CE00001AC012363700026A6702370210005203B
:101CF0000E4DA84721000820A84721000920A84729
:101D00000B4B20225A61E0325A610132FF325A6194
:101D10002670A6700223637021000E20A847054B91
:101D20009847054B984702B070BDC0468910000027
:101D300000440041251C0000911C0000C209002342
:101D4000002A04D14309DB01044A944663441F225C
:101D500010401E3A82409A617047C04600440041DC
:101D6000C2090023002A04D14309DB01044A944636
:101D700063441F2210401E3A82405A617047C04699
:101D80000044004110B5064B18700022054B1A7034
:101D900080229200044B5A616420044B984710BD86
:101DA000FD000020FC000020004400415D10000008
:101DB00000B583B000230193134B1B6A134A1340F1
:101DC0000193019B0020002B01D103B000BD7D30A9
:101DD0000F4B98470C4B1B6A0C4A13400193019B15
:101DE0000020002BF1D0019A8023DB019A4208D118
:101DF000002301930230044B1B6A044A13400193F1
:101E0000E3E70020F7E7C0460044004110C00000AF
:101E10005D1000000122014B1A707047FE00002087
:101E2000F0B591B02B4C1823237000236370A3707E
:101E300001A901224A708B700A701820264B98471E
:101E40002378D9090022002904D15A09D201234953
:101E50008C4662441F263340012529009940916138
:101E600002AC257000230493C022920305922374D0
:101E70006374A574E57423752422A354183A0021D1
:101E800008A8174B9847174BA3618023DB056360B5
:101E9000154BA362154BE36201235B422363144B92
:101EA0006363144F220014493800144B98473C6870
:101EB0002000134B98470640B540124B1D603A680E
:101EC000D369002BFCD1236802221343236011B095
:101ED000F0BDC046D8010020891000000044004138
:101EE00021280000A086010002001E0002001F0041
:101EF000020019009C010020000C00423D1200006D
:101F00000112000000E100E010B5064C0222064973
:101F10002000064B98473722A35C04210B43A354AF
:101F200010BDC0469C010020151E00004515000094
:101F300010B5024B9847024B984710BD211E000078
:101F4000091F0000F8B506000F0014000B4D012218
:101F50000B4928000B4B9847A3B23A0031002800E8
:101F6000094CA047094A1378002BFCD00022074BEC
:101F70001A7003490148034B9847F8BD9C010020A3
:101F8000D8010020511400005D150000FE00002063
:101F9000704700000C4B1B68002B06D1EFF3108339
:101FA000002B07D00022094B1A70074A136801332F
:101FB0001360704772B6BFF35F8F0022044B1A7034
:101FC0000132024B1A70F0E70001002004010020EA
:101FD000A0000020084B1A68013A1A601B68002B09
:101FE00009D1064B1B78002B05D00122044B1A7037
:101FF000BFF35F8F62B6704700010020040100202C
:10200000A000002010B5082803D880001B4B1B58E7
:102010009F46002030E01A4B18692DE0194B1B6ACF
:102020009B059B0F1848D84026E0154B586923E0C4
:10203000134B1B6800209B071ED512491022CB684A
:102040001A42FCD00E4B1B685B0701D40F4813E00B
:1020500000200F4B98470A4B9B681B041B0C5843EE
:102060000AE05023074AD35C00205B0704D5044BE9
:10207000D86801E08020000210BDC0467C28000026
:10208000080100200008004000127A00006CDC0209
:102090006524000070B50C490B6A04788578407897
:1020A0000122104080014026B34303432A40D2015D
:1020B000802083431343032222401202034803403B
:1020C00013430B6270BDC04600080040FFFCFFFFD9
:1020D000082803D88000254B1B589F46172044E052
:1020E000234A136A02210B43136200203DE0204A79
:1020F000936902210B439361002036E01C4A138A46
:1021000002210B43138200202FE0194A938A0221F7
:102110000B439382002028E016490B6802221343E8
:102120000B60134B9A8419000E32CB681A42FCD014
:10213000104A91680E4BD96252689A6200229A84C2
:1021400019001032CB681A42FCD00A4B1B689BB2B4
:10215000074A9384002008E0054944228B5C022052
:1021600003438B54002000E000207047A0280000AB
:10217000000800400801002030B585B0C222D2001E
:102180001A4B9A601A4A53681E218B4353600123ED
:102190006A4613700024174DE0B26946A84701341F
:1021A000182CF9D103A8002444700125857004700F
:1021B000114B98470620114B9847114B9847114BEC
:1021C0001C725C729C72DC7201956B465C7006231B
:1021D0006A46137014725472694600200A4B98477D
:1021E00000200A4B984705B030BDC04600080040AB
:1021F000004000414924000095200000D12000004B
:10220000112200000004004035220000ED220000F1
:10221000064A936908210B4393610122044B1A700B
:1022200019000B781342FCD17047C04600040040EF
:10223000000C004070B5060004000D782D02054327
:102240004B78002B02D08023DB021D434B7A002BFE
:1022500002D080231B031D434868012810D9431E68
:10226000184234D1022830D90223002201325B0007
:102270009842FBD812023243140080235B031D43B3
:102280000B7A002B02D080239B031D43134A537803
:102290005BB2002BFBDB124B9847124B1E700F4AB0
:1022A00053785BB2002BFBDB0C4B9C601A0053781D
:1022B0005BB2002BFBDB094A5368802149020B40CB
:1022C0001D435560084B984770BD0022D2E70402B9
:1022D000344380239B021D43D2E7C046000C0040DC
:1022E000951F0000080C0040D51F000010B5040029
:1022F0000B4A53785BB2002BFBDB0A4B98470A4B27
:102300001C70074A53785BB2002BFBDB044A516810
:1023100080235B020B435360044B984710BDC046BB
:10232000000C0040951F0000040C0040D51F000069
:1023300070B504001A4A53785BB2002BFBDB194BD3
:102340009847194B1C70164A53785BB2002BFBDB85
:10235000134E7068C004C00E144B98470500124B12
:102360001C707668F602F60F114B1C700C4A5378FD
:102370005BB2002BFBDB0A4B9C682402240C0D4B48
:102380009847002E07D1012C07D9210028000A4BBD
:102390009847050001E00134E540280070BDC046C3
:1023A000000C0040951F0000040C004005200000B8
:1023B000080C0040D51F0000C126000010B5040025
:1023C000064B9847064B1C70064A53888021C9016A
:1023D0000B435380044B984710BDC046951F000027
:1023E000020C0040000C0040D51F000010B5040096
:1023F0000F4B98470F4B1C700F4A53881B05180F43
:1024000053880E490B40538053880D490B4053802D
:1024100011008022D2014B881342FCD106494A8820
:1024200003020648024013434B80064B984710BDF9
:10243000951F0000020C0040000C0040FFF0FFFF61
:10244000FFBFFFFFD51F000010B50C782402044326
:10245000024B9847A4B2024B5C8010BDED230000F4
:10246000000C004010B50400064B9847064B1C704A
:10247000064B5C882405240F054B98472000054B2C
:10248000984710BD951F0000020C0040000C004052
:10249000D51F00003123000030B5D378002B35D193
:1024A0001378802B29D01B068024640223435478A0
:1024B0000225AC4306D19478002C20D18024A402BC
:1024C000234341605478013C012C1CD90D042D0C90
:1024D000A024E4052C431C4384620D0CD024240664
:1024E0002C431C438462D478002C22D15B031CD57E
:1024F0009378012B1ED0416117E00023D7E7C02459
:10250000E4022343DDE70D4C2340DFE741600C0488
:10251000240CA023DB05234383620C0CD0231B0671
:1025200023438362D378002B03D15378013B012BE3
:1025300002D930BD8161F8E78160FAE7FFFFFBFF58
:1025400010B50A00C1090023002904D14309DB01A9
:1025500005498C4663441F24204001218140180016
:10256000024B984710BDC04600440041992400002A
:102570007047000010B5054B9847054B9847054B31
:102580009847054B9847054B984710BD79210000A7
:10259000911F000029020000E903000071250000DE
:1025A000FEE7000010B5264A264B9A4211D01A00C9
:1025B000254B9A420DD2254A03339B1A9B080133BF
:1025C0009B0000221F481E498C58845004329A42B6
:1025D000FAD11F4A1F4B9A420AD2D3431D495B18B6
:1025E00003218B4304339B18002102C29342FCD188
:1025F000194AFF21194B8B439360FD3990235B00EF
:10260000174AD150174B9A7B2E318A4320210A4317
:102610009A739A7B0C218A4308210A439A739A7B06
:1026200003218A4302210A439A730F4A5368802187
:102630000B4353600D4B98470D4B9847FEE7C04640
:10264000E428000000000020A40000200400002076
:10265000A4000020F401002000ED00E000000000D4
:10266000007000410048004100400041D9270000AF
:102670007526000010B50A4B98470122094B1A70C5
:10268000BFF35F8F62B6084B9847084B9847084BDB
:102690009847084B9847084B9847084B9847FEE7E0
:1026A00075250000A0000020F10F0000DD1C0000D7
:1026B000311F00003D060000890B00009909000051
:1026C000002243088B4274D303098B425FD3030A71
:1026D0008B4244D3030B8B4228D3030C8B420DD384
:1026E000FF22090212BA030C8B4202D31212090212
:1026F00065D0030B8B4219D300E0090AC30B8B4250
:1027000001D3CB03C01A5241830B8B4201D38B03FD
:10271000C01A5241430B8B4201D34B03C01A5241A2
:10272000030B8B4201D30B03C01A5241C30A8B42E5
:1027300001D3CB02C01A5241830A8B4201D38B02D0
:10274000C01A5241430A8B4201D34B02C01A524174
:10275000030A8B4201D30B02C01A5241CDD2C309E6
:102760008B4201D3CB01C01A524183098B4201D362
:102770008B01C01A524143098B4201D34B01C01A4D
:10278000524103098B4201D30B01C01A5241C308C5
:102790008B4201D3CB00C01A524183088B4201D334
:1027A0008B00C01A524143088B4201D34B00C01A20
:1027B0005241411A00D20146524110467047FFE78C
:1027C00001B5002000F006F802BDC0460029F7D090
:1027D00076E770477047C04670B500260C4D0D4C2B
:1027E000641BA410A64209D1002600F06BF80A4D24
:1027F0000A4C641BA410A64205D170BDB300EB586F
:1028000098470136EEE7B300EB5898470136F2E7F8
:10281000D0280000D0280000D0280000D4280000D4
:1028200003008218934200D1704719700133F9E711
:10283000120A00000C0A0000180A0000200A00001A
:10284000280A0000300A0000010000000200000019
:10285000040000000800000000100000002000003C
:1028600000400000008000000000010000000200A5
:1028700000000400000008000D0E000016200000FB
:1028800012200000122000007420000074200000BC
:102890002A2000001C2000003020000062200000E0
:1028A000FC200000DC200000DC200000682100008B
:1028B000EE2000000A210000E020000018210000A6
:1028C00058210000F8B5C046F8BC08BC9E467047C9
:1028D000B5000000F8B5C046F8BC08BC9E4670477D
:0428E0008D00000067
:1028E40000000000060000000000000000000000DE
:1028F4000000000014010000654704006546040060
:102904006545040065430400654004006540040017
:1029140065400400654004000400000082001000CB
:1029240037000000820038005F0000008200600071
:102934008700000043000000800010003700000002
:10294400800038005F000000800060008700000005
:1029540001000000810010003700000081003800F1
:102964005F00000081006000870000000300000099
:102974000500000002000000401F000008000000E5
:04298400010000004E
:04000003000025A52F
:00000001FF
