S0100000427572705F626F782E73726563D3
S113000030050020650F0000610F0000610F000043
S113001000000000000000000000000000000000DC
S1130020000000000000000000000000610F00005C
S11300300000000000000000610F0000610F0000DC
S1130040610F0000610F0000610F0000610F0000EC
S113005039010000610F0000610F00000000000082
S1130060610F000065060000750600000000000036
S1130070090800007D0800008D080000610F0000E1
S1130080610F0000610F0000610F000010B5064C05
S11300902378002B07D1054B002B02D0044800E045
S11300A000BF0123237010BD4400002000000000A5
S11300B050120000084B10B5002B03D00749084824
S11300C000E000BF07480368002B00D110BD064BB9
S11300D0002BFBD09847F9E70000000048000020FF
S11300E05012000050120000000000001723002AE4
S11300F001D0180070478B00064A9B58002B03D090
S1130100834205D01D23F4E7890088500023F0E7DB
S11301100023EEE7A00000201723002901D01800D7
S1130120704700221F2800D8024A01238340D3606D
S11301300023F4E70018004070B50022104B1A7039
S11301400023104A1F25104E0D4C0AE00D4A08E00A
S113015023780133DBB223700F2B0FD800221F2B1F
S1130160F4D9116928001840012282401142EFD0CD
S11301709B009B59002BEBD09847E9E770BDC04624
S11301809F00002000180040A0000020044A1378BB
S113019002210B43137053785BB2002BFBDB7047D7
S11301A00018004000B583B0124A936940210B4304
S11301B0936101A900230B7005200F4B984705207C
S11301C00E4B98470E4A137801210B431370537852
S11301D05BB2002BFBDB0B4B19004031002204C344
S11301E09942FCD11022084B1A60084B984703B07F
S11301F000BDC04600040040090E00007D0D000053
S113020000180040A000002000E100E08D01000083
S1130210002303604360012202724272837202333C
S1130220C3727047F0B583B005000C0001A9002328
S11302304B70CB7023790B70237A8B702078154B1D
S1130240984700201F2D00D8134807222A40920007
S1130250E77AA37A002B01D008231F43EB089B0005
S1130260C31899690F269640B14397403A000A4350
S11302709A61637A002B06D143690122AA40934311
S1130280436103B0F0BD42690123AB4013434361B2
S1130290F7E7C046010F00000018004010B5002128
S11302A00420034CA04700210120A04710BDC046F4
S11302B019010000F0B585B001AC20000D4FB8471E
S11302C0042301938023DB02636002252572E57217
S11302D021000420084EB0472000B8470F230193A3
S11302E0F0231B0363602572E57221000120B047EF
S11302F005B0F0BD110200002502000082B06B467B
S11303000022DA71034A1278D2B2DA71D879C0B213
S113031002B070471018004010B57D200C4B984770
S11303200C4B9847102805D012280DD000220A4BF8
S11303301A7002E00322084B1A700122074B1A704C
S1130340FE32074B1A7010BD0722034B1A70F4E7F4
S113035039060000FD0200009C0000209D000020E2
S11303601018004010B57D200C4B98470C4B984753
S1130370022805D012280DD000220A4B1A7002E080
S11303800122084B1A700122074B1A70FE32074BE8
S11303901A7010BD0722034B1A70F4E739060000E7
S11303A0FD0200009C0000209D0000201018004069
S11303B010B5002204210448044CA0470022012166
S11303C00348A04710BDC04619030000ED0000001B
S11303D06503000010B5034B9847034B9847034B44
S11303E0984710BDB5020000B10300009D02000053
S11303F010B5024B1878024B984710BD9C000020A2
S11304004105000010B5022202490348034B9847F6
S113041010BDC046600000200C000020110900003F
S113042010B503220149024B984710BD6400002017
S11304301109000010B5022202490348034B9847F2
S113044010BDC046600000203400002011090000E7
S113045010B56420014B984710BDC0463906000012
S113046070B50B4B1B78002B0FD10A4E0A4C0B4D69
S1130470B047042221002800094B98476378DB0623
S113048003D4034B1B78002BF2D0064B984770BD66
S11304909D00002051040000640000203000002072
S11304A0110900003504000010B502280CD00328FF
S11304B010D0012802D00A4B984710BD06220949E2
S11304C009480A4B9847F6E7062206490848074BAD
S11304D09847F0E7062203490548044B9847EAE7A2
S11304E061040000680000202000002011090000C1
S11304F02800002010B502280CD0032810D00128B1
S113050002D00A4B984710BD0622094909480A4BF4
S11305109847F6E7062206490848074B9847F0E74C
S1130520062203490548044B9847EAE761040000A2
S113053068000020100000201109000018000020AD
S113054010B5022819D0032802D0012828D010BDE4
S11305501D4B984708201D4B98471D481D4CA0472C
S11305601D4B98471D4B1878C0B21D4B9847082067
S11305701C4B98471C48A047E9E7134B98470520B4
S1130580124B98471948134CA047144B1878C0B223
S1130590174B98470520134B98471348A047D6E7B5
S11305A0094B98470D4A13780133DBB21370137863
S11305B0DBB2032B02D90122084B1A70074B1878BF
S11305C0C0B20C4B9847C2E7350400009D080000F8
S11305D00400002021040000050400009E00002007
S11305E0F5040000C10800000000002008000020FD
S11305F0A9040000E508000070B50020084B9847E6
S11306000500084CFA218900A047074B18600749E8
S11306102800A047064B18600522064B1A6070BDDF
S1130620F10C0000591000003800002040420F0077
S11306303C00002010E000E030B5084B1C68084A7C
S1130640002580214902013807D3002CFBD05460D7
S1130650956013680B42FCD0F5E730BD38000020EC
S113066010E000E010B5024B1B680020984710BD55
S11306707000002010B5024B5B680120984710BD44
S11306807000002010B544791523012C01D0180006
S113069010BD047A0023002CF9D1002A58D04B78DD
S11306A0002B44D003681B7EDB0710D40A78D109E1
S11306B00023002904D15309DB012E498C466344ED
S11306C01F21114001228A409A610523DFE70A783D
S11306D0D4090023002C04D15309DB01254CA44682
S11306E063441F2414400122A2405A6103681A7E05
S11306F0D20701D58A789A62C2790023002AC6D12A
S113070002680421137E0B42FCD0117E00234907AA
S1130710BDD5538B5B0701D5042353838379012B08
S113072002D0936A0023B2E7936A0023AFE70A7802
S1130730D1090023002904D15309DB010D498C465A
S113074063441F21114001228A405A6100239EE71D
S11307500A78D1090023002904D15309DB01054992
S11307608C4663441F21114001228A409A61002370
S11307708DE7C0460044004130B51724002B01D159
S1130780200030BDC5790534002DF9D01C34055D39
S1130790333C052DF4D0838603868262C162052230
S11307A03823C254363B437203689A754279002455
S11307B0002AE5D102321A769A75E1E7F0B5C64609
S11307C000B580000E4BC7583B68DE6ABB6B7A6B82
S11307D013401E4000240B4B984602E00434302C96
S11307E00AD04346E5583542F8D03B195B683800D7
S11307F098473B68DD62F1E704BC9046F0BDC04613
S113080020010020B811000010B50020014B9847CA
S113081010BDC046BD07000070B58000164BC4581B
S113082023689D7B227E637E13401D40EB0706D424
S1130830AB070BD4EB0610D4AB0615D470BD200067
S1130840A3689847012322689373F1E72000E368C3
S11308509847022322689373ECE7200023699847A2
S1130860102322689373E7E720006369984723689D
S113087020229A73E2E7C0462401002010B500202C
S1130880014B984710BDC0461908000010B501205F
S1130890014B984710BDC04619080000C209002347
S11308A0002A04D14309DB01044A944663441F220D
S11308B010401E3A82409A617047C046004400418D
S11308C0C2090023002A04D14309DB01044A9446E7
S11308D063441F2210401E3A82405A617047C0464A
S11308E00044004110B5064B18700022054B1A70E5
S11308F080229200044B5A616420044B984710BD37
S113090079000020780000200044004139060000EE
S1130910F8B506000F001400084D0122084928000C
S1130920084B9847A3B23A0031002800064CA04770
S1130930064A1378002BFCD0F8BDC046E000002026
S11309401C01002085060000790700007A000020C1
S1130950704700000C4B1B68002B06D1EFF310838B
S1130960002B07D00022094B1A70074A1368013381
S11309701360704772B6BFF35F8F0022044B1A7086
S11309800132024B1A70F0E77C0000208000002046
S113099040000020084B1A68013A1A601B68002BBB
S11309A009D1064B1B78002B05D00122044B1A7089
S11309B0BFF35F8F62B670477C0000208000002088
S11309C04000002010B5082803D880001B4B1B589A
S11309D09F46002030E01A4B18692DE0194B1B6A22
S11309E09B059B0F1848D84026E0154B586923E017
S11309F0134B1B6800209B071ED512491022CB689D
S1130A001A42FCD00E4B1B685B0701D40F4813E05D
S1130A1000200F4B98470A4B9B681B041B0C584340
S1130A200AE05023074AD35C00205B0704D5044B3B
S1130A30D86801E08020000210BDC046E811000023
S1130A40840000200008004000127A00006CDC02E0
S1130A50250E000070B50C490B6A0478857840783F
S1130A600122104080014026B34303432A40D201AF
S1130A70802083431343032222401202034803408D
S1130A8013430B6270BDC04600080040FFFCFFFF2B
S1130A90082803D88000254B1B589F46172044E0A4
S1130AA0234A136A02210B43136200203DE0204ACB
S1130AB0936902210B439361002036E01C4A138A98
S1130AC002210B43138200202FE0194A938A02214A
S1130AD00B439382002028E016490B68022213433B
S1130AE00B60134B9A8419000E32CB681A42FCD067
S1130AF0104A91680E4BD96252689A6200229A8415
S1130B0019001032CB681A42FCD00A4B1B689BB206
S1130B10074A9384002008E0054944228B5C0220A4
S1130B2003438B54002000E0002070470C120000A7
S1130B30000800408400002030B585B0C222D200F5
S1130B401A4B9A601A4A53681E218B43536001233F
S1130B506A4613700024174DE0B26946A847013471
S1130B60182CF9D103A80024447001258570047061
S1130B70114B98470620114B9847114B9847114B3E
S1130B801C725C729C72DC7201956B465C7006236D
S1130B906A46137014725472694600200A4B9847CF
S1130BA000200A4B984705B030BDC04600080040FD
S1130BB000400041090E0000550A0000910A00009F
S1130BC0D10B000000040040F50B0000AD0C000048
S1130BD0064A936908210B4393610122044B1A705E
S1130BE019000B781342FCD17047C0460004004042
S1130BF0000C004070B5060004000D782D0205437A
S1130C004B78002B02D08023DB021D434B7A002B50
S1130C1002D080231B031D434868012810D9431EBA
S1130C20184234D1022830D90223002201325B0059
S1130C309842FBD812023243140080235B031D4305
S1130C400B7A002B02D080239B031D43134A537855
S1130C505BB2002BFBDB124B9847124B1E700F4A02
S1130C6053785BB2002BFBDB0C4B9C601A0053786F
S1130C705BB2002BFBDB094A5368802149020B401D
S1130C801D435560084B984770BD0022D2E704020B
S1130C90344380239B021D43D2E7C046000C00402E
S1130CA055090000080C00409509000010B5040027
S1130CB00B4A53785BB2002BFBDB0A4B98470A4B79
S1130CC01C70074A53785BB2002BFBDB044A516863
S1130CD080235B020B435360044B984710BDC0460E
S1130CE0000C004055090000040C00409509000068
S1130CF070B504001A4A53785BB2002BFBDB194B26
S1130D009847194B1C70164A53785BB2002BFBDBD7
S1130D10134E7068C004C00E144B98470500124B64
S1130D201C707668F602F60F114B1C700C4A53784F
S1130D305BB2002BFBDB0A4B9C682402240C0D4B9A
S1130D409847002E07D1012C07D9210028000A4B0F
S1130D509847050001E00134E540280070BDC04615
S1130D60000C004055090000040C0040C5090000B7
S1130D70080C0040950900005910000010B504004B
S1130D80064B9847064B1C70064A53888021C901BC
S1130D900B435380044B984710BDC04655090000CF
S1130DA0020C0040000C00409509000010B504003E
S1130DB00F4B98470F4B1C700F4A53881B05180F95
S1130DC053880E490B40538053880D490B40538080
S1130DD011008022D2014B881342FCD106494A8873
S1130DE003020648024013434B80064B984710BD4C
S1130DF055090000020C0040000C0040FFF0FFFF0A
S1130E00FFBFFFFF9509000010B50C7824020443CE
S1130E10024B9847A4B2024B5C8010BDAD0D00009C
S1130E20000C004010B50400064B9847064B1C709C
S1130E30064B5C882405240F054B98472000054B7E
S1130E40984710BD55090000020C0040000C0040FA
S1130E5095090000F10C000030B5D378002B35D192
S1130E601378802B29D01B068024640223435478F2
S1130E700225AC4306D19478002C20D18024A4020E
S1130E80234341605478013C012C1CD90D042D0CE2
S1130E90A024E4052C431C4384620D0CD0242406B6
S1130EA02C431C438462D478002C22D15B031CD5D0
S1130EB09378012B1ED0416117E00023D7E7C024AB
S1130EC0E4022343DDE70D4C2340DFE741600C04DB
S1130ED0240CA023DB05234383620C0CD0231B06C4
S1130EE023438362D378002B03D15378013B012B36
S1130EF002D930BD8161F8E78160FAE7FFFFFBFFAB
S1130F0010B50A00C1090023002904D14309DB01FB
S1130F1005498C4663441F24204001218140180068
S1130F20024B984710BDC04600440041590E0000D2
S1130F307047000010B5054B9847054B9847054B83
S1130F409847054B9847054B984710BD390B00004F
S1130F5051090000310F0000A5010000310F00000D
S1130F60FEE7000010B5264A264B9A4211D01A001B
S1130F70254B9A420DD2254A03339B1A9B08013311
S1130F809B0000221F481E498C58845004329A4208
S1130F90FAD11F4A1F4B9A420AD2D3431D495B1808
S1130FA003218B4304339B18002102C29342FCD1DA
S1130FB0194AFF21194B8B439360FD3990235B0041
S1130FC0174AD150174B9A7B2E318A4320210A436A
S1130FD09A739A7B0C218A4308210A439A739A7B59
S1130FE003218A4302210A439A730F4A53688021DA
S1130FF00B4353600D4B98470D4B9847FEE7C04693
S113100050120000000000204400002004000020D2
S1131010440000202C01002000ED00E0000000004E
S1131020007000410048004100400041711100007F
S11310303510000010B5044B9847044B9847044BF7
S11310409847044CA047FDE7350F0000F905000060
S1131050D5030000F1030000002243088B4274D33F
S113106003098B425FD3030A8B4244D3030B8B42A5
S113107028D3030C8B420DD3FF22090212BA030CAE
S11310808B4202D31212090265D0030B8B4219D38F
S113109000E0090AC30B8B4201D3CB03C01A5241AF
S11310A0830B8B4201D38B03C01A5241430B8B42F7
S11310B001D34B03C01A5241030B8B4201D30B03E0
S11310C0C01A5241C30A8B4201D3CB02C01A524107
S11310D0830A8B4201D38B02C01A5241430A8B42CA
S11310E001D34B02C01A5241030A8B4201D30B02B3
S11310F0C01A5241CDD2C3098B4201D3CB01C01ACD
S1131100524183098B4201D38B01C01A52414309D6
S11311108B4201D34B01C01A524103098B4201D3C4
S11311200B01C01A5241C3088B4201D3CB00C01A31
S1131130524183088B4201D38B00C01A52414308A9
S11311408B4201D34B00C01A5241411A00D20146CE
S1131150524110467047FFE701B5002000F006F841
S113116002BDC0460029F7D076E770477047C046F5
S113117070B500260C4D0D4C641BA410A64209D179
S1131180002600F055F80A4D0A4C641BA410A64230
S113119005D170BDB300EB5898470136EEE7B300B4
S11311A0EB5898470136F2E73C1200003C1200006D
S11311B03C12000040120000010000000200000088
S11311C004000000080000000010000000200000DF
S11311D00040000000800000000001000000020048
S11311E00000040000000800D6090000D209000035
S11311F0D2090000340A0000340A0000EA090000A1
S1131200DC090000F0090000220A0000BC0A00000A
S11312109C0A00009C0A0000280B0000AE0A000093
S1131220CA0A0000A00A0000D80A0000180B000037
S1131230F8B5C046F8BC08BC9E467047B50000002F
S1131240F8B5C046F8BC08BC9E4670478D00000047
S1131250654004006540040065410400040000008A
S113126080001500E000000080001500E000000090
S113127081001500E000000081001500E00000007E
S11312800500000002000000401F000008000000EC
S10712900100000055
S9030F6588
